{
  "contractName": "Voting",
  "abi": [
    {
      "constant": true,
      "inputs": [
        {
          "name": "candidate",
          "type": "bytes32"
        }
      ],
      "name": "totalVotesFor",
      "outputs": [
        {
          "name": "",
          "type": "uint8"
        }
      ],
      "payable": false,
      "stateMutability": "view",
      "type": "function"
    },
    {
      "constant": true,
      "inputs": [
        {
          "name": "candidate",
          "type": "bytes32"
        }
      ],
      "name": "validCandidate",
      "outputs": [
        {
          "name": "",
          "type": "bool"
        }
      ],
      "payable": false,
      "stateMutability": "view",
      "type": "function"
    },
    {
      "constant": true,
      "inputs": [
        {
          "name": "",
          "type": "bytes32"
        }
      ],
      "name": "votesReceived",
      "outputs": [
        {
          "name": "",
          "type": "uint8"
        }
      ],
      "payable": false,
      "stateMutability": "view",
      "type": "function"
    },
    {
      "constant": true,
      "inputs": [
        {
          "name": "x",
          "type": "bytes32"
        }
      ],
      "name": "bytes32ToString",
      "outputs": [
        {
          "name": "",
          "type": "string"
        }
      ],
      "payable": false,
      "stateMutability": "view",
      "type": "function"
    },
    {
      "constant": true,
      "inputs": [
        {
          "name": "",
          "type": "uint256"
        }
      ],
      "name": "candidateList",
      "outputs": [
        {
          "name": "",
          "type": "bytes32"
        }
      ],
      "payable": false,
      "stateMutability": "view",
      "type": "function"
    },
    {
      "constant": false,
      "inputs": [
        {
          "name": "candidate",
          "type": "bytes32"
        }
      ],
      "name": "voteForCandidate",
      "outputs": [],
      "payable": false,
      "stateMutability": "nonpayable",
      "type": "function"
    },
    {
      "inputs": [
        {
          "name": "candidateNames",
          "type": "bytes32[]"
        }
      ],
      "payable": false,
      "stateMutability": "nonpayable",
      "type": "constructor"
    },
    {
      "anonymous": false,
      "inputs": [
        {
          "indexed": false,
          "name": "candidate",
          "type": "string"
        }
      ],
      "name": "Voted",
      "type": "event"
    }
  ],
  "bytecode": "0x6060604052341561000f57600080fd5b60405161074b38038061074b833981016040528080518201919050508060019080519060200190610041929190610048565b50506100c0565b82805482825590600052602060002090810192821561008a579160200282015b82811115610089578251829060001916905591602001919060010190610068565b5b509050610097919061009b565b5090565b6100bd91905b808211156100b95760008160009055506001016100a1565b5090565b90565b61067c806100cf6000396000f300606060405260043610610078576000357c0100000000000000000000000000000000000000000000000000000000900463ffffffff1680632f265cf71461007d578063392e6678146100be5780637021939f146100fd5780639201de551461013e578063b13c744b146101de578063cc9ab2671461021d575b600080fd5b341561008857600080fd5b6100a2600480803560001916906020019091905050610244565b604051808260ff1660ff16815260200191505060405180910390f35b34156100c957600080fd5b6100e3600480803560001916906020019091905050610294565b604051808215151515815260200191505060405180910390f35b341561010857600080fd5b6101226004808035600019169060200190919050506102f4565b604051808260ff1660ff16815260200191505060405180910390f35b341561014957600080fd5b610163600480803560001916906020019091905050610314565b6040518080602001828103825283818151815260200191508051906020019080838360005b838110156101a3578082015181840152602081019050610188565b50505050905090810190601f1680156101d05780820380516001836020036101000a031916815260200191505b509250505060405180910390f35b34156101e957600080fd5b6101ff6004808035906020019091905050610501565b60405180826000191660001916815260200191505060405180910390f35b341561022857600080fd5b610242600480803560001916906020019091905050610525565b005b60006001151561025383610294565b1515141561028a57600080836000191660001916815260200190815260200160002060009054906101000a900460ff16905061028f565b600090505b919050565b600080600090505b6001805490508110156102e95782600019166001828154811015156102bd57fe5b9060005260206000209001546000191614156102dc57600191506102ee565b808060010191505061029c565b600091505b50919050565b60006020528060005260406000206000915054906101000a900460ff1681565b61031c610628565b61032461063c565b600080600061033161063c565b60206040518059106103405750595b9080825280601f01601f1916602001820160405250945060009350600092505b602083101561041e578260080260020a876001900402600102915060007f010000000000000000000000000000000000000000000000000000000000000002827effffffffffffffffffffffffffffffffffffffffffffffffffffffffffffff1916141515610411578185858151811015156103d857fe5b9060200101907effffffffffffffffffffffffffffffffffffffffffffffffffffffffffffff1916908160001a90535083806001019450505b8280600101935050610360565b8360405180591061042c5750595b9080825280601f01601f19166020018201604052509050600092505b838310156104f457848381518110151561045e57fe5b9060200101517f010000000000000000000000000000000000000000000000000000000000000090047f01000000000000000000000000000000000000000000000000000000000000000281848151811015156104b757fe5b9060200101907effffffffffffffffffffffffffffffffffffffffffffffffffffffffffffff1916908160001a9053508280600101935050610448565b8095505050505050919050565b60018181548110151561051057fe5b90600052602060002090016000915090505481565b6001151561053282610294565b15151415610625576001600080836000191660001916815260200190815260200160002060008282829054906101000a900460ff160192506101000a81548160ff021916908360ff1602179055507f38cb362e55241cdbab8a2f1105fb99fc7be1f0d6a865f97e688d6d5df0a036146105aa82610314565b6040518080602001828103825283818151815260200191508051906020019080838360005b838110156105ea5780820151818401526020810190506105cf565b50505050905090810190601f1680156106175780820380516001836020036101000a031916815260200191505b509250505060405180910390a15b50565b602060405190810160405280600081525090565b6020604051908101604052806000815250905600a165627a7a72305820c6e4952c0157161120eac11fbc2a9baafed5834fef67e2b8516212a821542f850029",
  "source": "pragma solidity ^0.4.4;\r\n\r\ncontract Voting {\r\n    mapping (bytes32 => uint8) public votesReceived;\r\n\r\n    // 存储候选人名字的数组\r\n    bytes32[] public candidateList;\r\n\r\n    function Voting(bytes32[] candidateNames) public {\r\n\r\n        candidateList = candidateNames;\r\n    }\r\n\r\n    function totalVotesFor(bytes32 candidate) public constant returns (uint8) {\r\n        //require(validCandidate(candidate) == true);\r\n        if (validCandidate(candidate) == true) {\r\n            return votesReceived[candidate];\r\n        } else {\r\n            return 0;\r\n        }\r\n    }\r\n\r\n    function voteForCandidate(bytes32 candidate) public {\r\n        //assert(validCandidate(candidate) == true);\r\n        if (validCandidate(candidate) == true) {\r\n            votesReceived[candidate] += 1;\r\n            Voted(bytes32ToString(candidate));\r\n        }\r\n    }\r\n\r\n    function validCandidate(bytes32 candidate) public constant returns (bool) {\r\n        for (uint i = 0; i < candidateList.length; i++) {\r\n            if (candidateList[i]==candidate) {\r\n                return true;\r\n            }\r\n        }\r\n        return false;\r\n    }\r\n\r\n    function bytes32ToString(bytes32 x) constant returns (string) {\r\n        bytes memory bytesString = new bytes(32);\r\n        uint charCount = 0;\r\n        for (uint j = 0; j < 32; j++) {\r\n            byte char = byte(bytes32(uint(x) * 2 ** (8 * j)));\r\n            if (char != 0) {\r\n                bytesString[charCount] = char;\r\n                charCount++;\r\n            }\r\n        }\r\n        bytes memory bytesStringTrimmed = new bytes(charCount);\r\n        for (j = 0; j < charCount; j++) {\r\n            bytesStringTrimmed[j] = bytesString[j];\r\n        }\r\n        return string(bytesStringTrimmed);\r\n    }\r\n\r\n    event Voted(string candidate);\r\n}",
  "sourcePath": "/mnt/hgfs/PlayForFun/Ethereum/Voting/contracts/Voting.sol",
  "compiler": {
    "name": "solc",
    "version": "0.4.18+commit.9cf6e910.Emscripten.clang"
  },
  "schemaVersion": "1.0.1",
  "updatedAt": "2017-12-27T08:14:31.164Z"
}